:100000000C94DF000C9407010C9407010C94070179
:100010000C9407010C9407010C9407010C94070140
:100020000C9407010C9407010C9407010C94070130
:100030000C9407010C9407010C9407010C94070120
:100040000C9491030C9407010C945F030C943903F6
:100050000C9407010C9407010C9407010C94070100
:100060000C9407010C94070100407A10F35A00A089
:10007000724E18090010A5D4E80000E87648170071
:1000800000E40B54020000CA9A3B000000E1F505B1
:10009000000080969800000040420F000000A086FB
:1000A00001000000102700000000E803000000002D
:1000B0006400000000000A000000000001000000D1
:1000C00000002C76D888DC674F0823DFC1DFAE59EB
:1000D000E1B1B796E5E3E453C63AE651997696E87E
:1000E000E6C28426EB898C9B62ED407C6FFCEFBC02
:1000F0009C9F40F2BAA56FA5F490055A2AF75C932D
:100100006B6CF9676DC11BFCE0E40D47FEF520E662
:10011000B500D0ED902E0300943577050080841E45
:10012000080000204E0A000000C80C333333330FA0
:10013000986E12831141EF8D2114893BE65516CF3D
:10014000FEE6DB18D1844B381BF77C1D901DA4BB49
:10015000E424203284725E228100C9F124ECA1E5FE
:100160003D270000000023002600290000000008B1
:10017000000201000003040700000000000000006E
:1001800000000000250028002B00000000002400D3
:1001900027002A00040404040404040402020202E6
:1001A000020203030303030301020408102040803A
:1001B000010204081020010204081020DB031124AE
:1001C0001FBECFEFD8E0DEBFCDBF22E0A4E5B1E097
:1001D00001C01D92AC30B207E1F711E0A0E0B1E040
:1001E000EEE6FFE102C005900D92A435B107D9F704
:1001F00010E0CFEDD0E004C02197FE010E94F90A83
:10020000CE3DD107C9F70E940E040C94B50F0C9493
:100210000000CF92DF92EF92FF920F931F93CF9344
:10022000DF936C017A018B01C0E0D0E0CE15DF05D1
:1002300089F0D8016D918D01D601ED91FC9101906D
:10024000F081E02DC6010995892B11F47E0102C0D1
:100250002196ECCFC701DF91CF911F910F91FF90B5
:10026000EF90DF90CF900895089580E090E008959A
:10027000FC01538D448D252F30E0842F90E0821BAC
:10028000930B541710F0CF96089501970895FC0131
:10029000918D828D981761F0828DDF01A80FB11DBD
:1002A0005D968C91928D9F5F9F73928F90E00895E1
:1002B0008FEF9FEF0895FC01918D828D981731F09B
:1002C000828DE80FF11D858D90E008958FEF9FEFEF
:1002D0000895FC01918D228D892F90E0805C9F4FC5
:1002E000821B91098F739927089589E691E00E94F6
:1002F000690121E0892B09F420E0822F0895FC0197
:10030000848DDF01A80FB11DA35ABF4F2C91848D9E
:1003100090E001968F739927848FA689B7892C93D3
:10032000A089B1898C9180648C93938D848D98136E
:1003300006C00288F389E02D80818F7D8083089537
:10034000EF92FF920F931F93CF93DF93EC0181E025
:10035000888F9B8D8C8D981305C0E889F9898081E1
:1003600085FD24C0F62E0B8D10E00F5F1F4F0F731D
:100370001127E02E8C8DE8120CC00FB607FCFACFC7
:10038000E889F989808185FFF5CFCE010E947F0140
:10039000F1CF8B8DFE01E80FF11DE35AFF4FF08284
:1003A0000B8FEA89FB898081806207C0EE89FF8913
:1003B0006083E889F98980818064808381E090E0AE
:1003C000DF91CF911F910F91FF90EF900895CF9300
:1003D000DF93EC01888D8823C9F0EA89FB8980814D
:1003E00085FD05C0A889B9898C9186FD0FC00FB61F
:1003F00007FCF5CF808185FFF2CFA889B9898C9160
:1004000085FFEDCFCE010E947F01E7CFDF91CF9135
:10041000089580E090E0892B29F00E9475018111F8
:100420000C9400000895833081F028F4813099F015
:100430008230A1F008958730A9F08830B9F0843077
:10044000D1F4809180008F7D03C0809180008F77F0
:1004500080938000089584B58F7702C084B58F7D26
:1004600084BD08958091B0008F7703C08091B00063
:100470008F7D8093B0000895CF93DF93282F30E0D5
:10048000F901E459FE4F8491F901E855FE4FD491EA
:10049000F901EC56FE4FC491CC2391F081110E94DA
:1004A0001302EC2FF0E0EE0FFF1FEE59FE4FA59167
:1004B000B491EC91ED2381E090E021F480E002C062
:1004C00080E090E0DF91CF9108951F93CF93DF9369
:1004D000282F30E0F901E459FE4F8491F901E855E5
:1004E000FE4FD491F901EC56FE4FC491CC23C9F0D4
:1004F000162F81110E941302EC2FF0E0EE0FFF1F68
:10050000E058FE4FA591B4918FB7F894111105C032
:100510009C91ED2FE095E92302C0EC91ED2BEC933B
:100520008FBFDF91CF911F9108953FB7F8948091CD
:10053000590190915A01A0915B01B0915C0126B5DF
:10054000A89B05C02F3F19F00196A11DB11D3FBF0B
:10055000BA2FA92F982F8827820F911DA11DB11D99
:10056000BC01CD0142E0660F771F881F991F4A9595
:10057000D1F708952FB7F894609155017091560105
:1005800080915701909158012FBF0895009769F00D
:10059000FC0101900020E9F73197AF01481B590B8E
:1005A000BC0189E691E00C94090180E090E0089597
:1005B0000E94F60C0F931F93CF93DF93EC01888179
:1005C0009981009729F02A813B812617370788F403
:1005D0008B016F5F7F4F0E942C0C009761F0998315
:1005E00088831B830A832C813D81232B11F4FC011A
:1005F000108281E001C080E0DF91CF911F910F91C7
:100600000895CF93DF93EC0188819981009711F0D1
:100610000E94940B198218821D821C821B821A82EE
:10062000DF91CF910895CF93DF93CDB7DEB7C05858
:10063000D1090FB6F894DEBF0FBECDBF9E012B5778
:100640003F4FF901419151919F0160E870E0CE0167
:1006500001960E940B0DCE0101960E94C602C05861
:10066000DF4F0FB6F894DEBF0FBECDBFDF91CF9145
:1006700008951F920F920FB60F9211242F933F935C
:100680004F935F936F937F938F939F93AF93BF939A
:10069000EF93FF9389E691E00E947F01FF91EF9134
:1006A000BF91AF919F918F917F916F915F914F918A
:1006B0003F912F910F900FBE0F901F9018951F9292
:1006C0000F920FB60F9211242F938F939F93EF9356
:1006D000FF93E0917901F0917A018081E0917F01AF
:1006E000F091800182FD12C09081809182018F5F24
:1006F0008F7320918301821751F0E0918201F0E025
:10070000E759FE4F958F8093820101C08081FF9150
:10071000EF919F918F912F910F900FBE0F901F908F
:1007200018951F920F920FB60F9211242F933F939B
:100730008F939F93AF93BF938091550190915601F2
:10074000A0915701B09158013091540123E0230F3B
:100750002D3720F40196A11DB11D05C026E8230FF9
:100760000296A11DB11D20935401809355019093D1
:100770005601A0935701B09358018091590190916F
:100780005A01A0915B01B0915C010196A11DB11DC0
:100790008093590190935A01A0935B01B0935C013F
:1007A000BF91AF919F918F913F912F910F900FBE6D
:1007B0000F901F901895E9E6F1E01382128288EEFF
:1007C00093E0A0E0B0E084839583A683B7838AE0BA
:1007D00091E09183808385EC90E09587848784EC19
:1007E00090E09787868780EC90E0918B808B81ECFE
:1007F00090E0938B828B82EC90E0958B848B86ECDF
:1008000090E0978B868B118E128E138E148EE6E0FD
:10081000F2E08CE080838DE081830895CF93DF93B5
:10082000CDB7DEB7A7970FB6F894DEBF0FBECDBF2A
:10083000789484B5826084BD84B5816084BD85B5BB
:10084000826085BD85B5816085BD80916E008160C7
:1008500080936E001092810080918100826080936D
:10086000810080918100816080938100809180006F
:100870008160809380008091B10084608093B1009A
:100880008091B00081608093B00080917A00846094
:1008900080937A0080917A00826080937A008091C0
:1008A0007A00816080937A0080917A0080688093DA
:1008B0007A001092C100E0917901F0917A0182E012
:1008C0008083E0917501F09176011082E0917701CB
:1008D000F091780180E1808310928101E0917D01A7
:1008E000F0917E0186E08083E0917B01F0917C01B4
:1008F000808180618083E0917B01F0917C01808127
:1009000088608083E0917B01F0917C018081806828
:100910008083E0917B01F0917C0180818F7D8083D9
:10092000EDE5AE2EE1E0BE2E00E010E0C8010E9431
:10093000070AD5018D935D010F5F1F4F043011052C
:10094000A9F7809160018F9380915F018F938091CF
:100950005E018F9380915D018F931F9284E08F934E
:1009600088E191E09F938F930E9413038091070287
:1009700090E0FC01E855FE4F2491FC01EC56FE4F3F
:1009800084910FB6F894DEBF0FBECDBF8823A1F0CF
:1009900090E0880F991FFC01E657FE4FA591B49196
:1009A000FC01E058FE4F859194918FB7F8949C918B
:1009B000E92FE22BEC938FBF4091060250E0FA0141
:1009C000E855FE4F8491FA01EC56FE4F44914423C2
:1009D000D1F050E0440F551FFA01E657FE4FA591A4
:1009E000B491FA01E058FE4F259134914FB7F89435
:1009F0009C91E82FE095892F8E238C93D9018C91BF
:100A0000E823EC934FBF61E0809106020E946502EB
:100A100060E0809107020E946502809107029EEFCC
:100A2000980F9C3040F4909106022EEF290F2C3045
:100A300010F498137CC081E491E00E94C6028EE31A
:100A400091E00E94C602412C512C3201539444E3A0
:100A5000242E41E0342E0E94BA024B015C0126E9AB
:100A6000820E911CA11CB11C809106020E943C02C6
:100A7000019741F00E94BA0286169706A806B906A9
:100A800098F77DC00E94BA024B015C0146E9840ED2
:100A9000911CA11CB11C809106020E943C02892B72
:100AA00041F00E94BA0286169706A806B90698F782
:100AB00066C00E94BA0260936101709362018093E4
:100AC00063019093640108E110E061E08091070206
:100AD0000E946502CC0CDD1CEE1CFF1C80910602FE
:100AE0000E943C02AC01990F660B770BC40ED51E19
:100AF000E61EF71E60E0809107020E946502015029
:100B0000110919F79E2D8D2D7C2D6627A3019201C9
:100B10000E94B80A69017A0161E0809107020E948F
:100B2000650260E0809107020E94650228C00E9471
:100B300095022B013C0188EE882E83E0982EA12C93
:100B4000B12C0E949502DC01CB0184199509A609FC
:100B5000B709883E9340A105B10558F0B1E08B1A62
:100B60009108A108B108E8EE4E0EE3E05E1E611C9C
:100B7000711C81149104A104B10419F764CF809110
:100B8000650190916601A0916701B091680101969D
:100B9000A11DB11D8093650190936601A09367012B
:100BA000B09368011C141D041E041F045CF4C701EB
:100BB000B6010E940E092EEF3FEF4FEF5AE40E945C
:100BC000460A0AC0C701B6010E940E0920E030E0C3
:100BD00040E054E30E94490920E030E04CE951E450
:100BE0000E9449091BA21AA21DA21CA21FA21EA29A
:100BF0008E010F5F1F4F27E049E00E9486064C01DF
:100C0000009779F0FC0101900020E9F731978F01FE
:100C1000081B190BB801CE0182960E94DA028111DD
:100C200005C0CE0182960E94010307C01FA30EA338
:100C3000B4018AA19BA10E94040D809168018F9349
:100C4000809167018F93809166018F9380916501F8
:100C50008F933F922F920E9413031A8219821C8253
:100C60001B821E821D820AA11BA10F900F900F9064
:100C70000F900F900F9001151105A9F08EA09FA065
:100C8000B401CE0101960E94DA02811105C0CE01A5
:100C900001960E94010307C09E828D82B80189815E
:100CA0009A810E94040D0D811E810D5F1F4FB801B6
:100CB000CE0101960E94DA02882319F129813A8136
:100CC0008D819E816AE371E0820F931F0E94040D63
:100CD0001E830D834D815E8169817A8189E691E071
:100CE0000E9409018EE391E00E94C60289819A81E7
:100CF0000E94940B8AA19BA10E94940B0E9409025E
:100D0000AACECE0101960E940103E4CFEF920F9389
:100D10001F93CF93DF93E80147FD02C034E001C089
:100D200034E1E42F440FFF0BF7FF03C0F195E19589
:100D3000F109E32E022F2E2FAE010E94A606CE014E
:100D4000DF91CF911F910F91EF9008954F925F9295
:100D50006F927F929F92AF92BF92CF92DF92EF926B
:100D6000FF920F931F93CF93DF93CDB7DEB72997F1
:100D70000FB6F894DEBF0FBECDBF6A01122FB02EA2
:100D80002BE3201720F0FF24F394F00E02C0BCE305
:100D9000FB2E0F2D27E0AE014F5F5F4F0E943408FE
:100DA000AC018981982F9970913031F0E1FC06C037
:100DB000E0FE06C090E205C09DE203C09BE201C0D8
:100DC00090E0EE2DE07183FF3CC0911102C083E002
:100DD00001C084E0811718F4212F281B01C020E0F6
:100DE000E1110BC0F601822F30E2882319F0319314
:100DF0008150FBCFC20ED11C20E0992329F0D601EF
:100E00009C93F60131966F01C6010396E2FE0AC07B
:100E10003EE4D6013C9341E411964C93119712960F
:100E20003C9306C03EE6F601308341E641833283BF
:100E3000FC01322F40E2332309F442C04193315088
:100E4000FACF82FF44C0911102C083E001C084E068
:100E5000811718F4212F281B01C020E0E1110BC0DD
:100E6000F601822F30E2882319F031938150FBCFB5
:100E7000C20ED11C20E0992329F0D6019C93F601E3
:100E800031966F01C6010396E2FE0BC039E4D6012C
:100E90003C933EE411963C93119736E412963C93B2
:100EA00007C039E6F60130833EE6318336E6328309
:100EB000FC01322F40E2332319F041933150FBCF34
:100EC000FC01E20FF11D10828EEF9FEFB7C0F1E041
:100ED000911101C0F0E06F2F70E01416150624F494
:100EE0009A012F5F3F4F02C021E030E0260F371FED
:100EF000BB2029F06B2D70E06F5F7F4F02C060E078
:100F000070E0260F371F612F70E0261737071CF49B
:100F1000121B212F01C020E03E2D387159F4D6015B
:100F2000322F60E2332319F06D933150FBCFC20EA4
:100F3000D11C20E0FF2331F0D6019C93B6016F5FF6
:100F40007F4F6B01E1110BC0F601922F30E3992323
:100F500019F031939150FBCFC20ED11C20E09F2D90
:100F6000940F3A81782F7071A72E84FF03C031331C
:100F700009F49150191624F4993018F098E001C042
:100F800091E0E42F852F57FF02C0E0E080E06E2F54
:100F9000782FE0E0F0E0AEE29A2E3A01691A71088B
:100FA0002A01461A570A0B2D10E0119501951109D7
:100FB0006F3F8FEF780729F4D6019C92C601019606
:100FC0006C014617570784F0661677066CF47F01AC
:100FD000E40CF51CA1E0B0E0AC0FBD1FEA0EFB1E57
:100FE000D7011196BC9002C090E3B92E61507109EF
:100FF0003196C60101967C016017710724F0D60175
:10100000BC926C01D5CF6417750741F4363320F4D8
:10101000353321F4A11002C081E3B82EF601B0826D
:10102000F701822F90E2882319F091938150FBCF32
:10103000F701E20FF11D108280E090E029960FB6D3
:10104000F894DEBF0FBECDBFDF91CF911F910F91FE
:10105000FF90EF90DF90CF90BF90AF909F907F90E8
:101060006F905F904F900895283008F027E0332765
:10107000DA01990F311D87FD9160009661057105B8
:1010800039F432602E5F3D9330E32A95E1F70895FD
:101090009F3F30F080387105610509F03C5F3C5F8F
:1010A0003D93913008F08068911DDF93CF931F939B
:1010B0000F93FF92EF92192F987F9695E92F9695AF
:1010C0009695E90FFF27EE53FF4F99273327EE241C
:1010D000FF24A701E70105900894079428F4360F30
:1010E000E71EF81E491F511D660F771F881F991FA5
:1010F0000694A1F70590079428F4E70EF81E491FFF
:10110000561FC11D770F881F991F661F0694A1F7F0
:101110000590079428F4F80E491F561FC71FD11DCC
:10112000880F991F661F771F0694A1F705900794F3
:1011300020F4490F561FC71FD81F990F661F771F2E
:10114000881F0694A9F784911095177041F0D695E1
:10115000C79557954795F794E7941A95C1F7E8E630
:10116000F0E06894159015913591659195910590F1
:101170007FE27395E118F10A430B560BC90BD009B6
:10118000C0F7E10CF11E431F561FC91FD01D7EF48E
:10119000703311F48A95E6CFE894015030F0080FCF
:1011A0000AF40027021708F4202F2395022F7A3320
:1011B00028F079E37D932A95E9F710C07D932A956D
:1011C00089F6069497956795379517951794E118C2
:1011D000F10A430B560BC90BD00998F023957E9169
:1011E00073957A3308F070E37C932013B8F77E91FF
:1011F00070617D9330F0839571E37D9370E32A9560
:10120000E1F71124EF90FF900F911F91CF91DF91A3
:10121000992787FD90950895E89409C097FB3EF4BF
:1012200090958095709561957F4F8F4F9F4F992333
:10123000A9F0F92F96E9BB279395F69587957795B1
:101240006795B795F111F8CFFAF4BB0F11F460FF71
:101250001BC06F5F7F4F8F4F9F4F16C0882311F0C9
:1012600096E911C0772321F09EE8872F762F05C0DD
:10127000662371F096E8862F70E060E02AF09A9578
:10128000660F771F881FDAF7880F9695879597F96D
:1012900008950E945C090C94CD090E94BF0938F0A2
:1012A0000E94C60920F0952311F00C94B6090C9405
:1012B000BC0911240C94010A0E94DE0970F3959F69
:1012C000C1F3950F50E0551F629FF001729FBB273D
:1012D000F00DB11D639FAA27F00DB11DAA1F649FD9
:1012E0006627B00DA11D661F829F2227B00DA11D8C
:1012F000621F739FB00DA11D621F839FA00D611D12
:10130000221F749F3327A00D611D231F849F600D32
:10131000211D822F762F6A2F11249F5750409AF05B
:10132000F1F088234AF0EE0FFF1FBB1F661F771FE7
:10133000881F91505040A9F79E3F510580F00C94B2
:10134000B6090C94010A5F3FE4F3983ED4F3869506
:1013500077956795B795F795E7959F5FC1F7FE2B52
:10136000880F911D9695879597F9089597F99F672E
:1013700080E870E060E008959FEF80EC089500241D
:101380000A941616170618060906089500240A94EA
:1013900012161306140605060895092E0394000C70
:1013A00011F4882352F0BB0F40F4BF2B11F460FFFF
:1013B00004C06F5F7F4F8F4F9F4F089557FD905828
:1013C000440F551F59F05F3F71F04795880F97FB09
:1013D000991F61F09F3F79F08795089512161306C3
:1013E0001406551FF2CF4695F1DF08C016161706F2
:1013F0001806991FF1CF8695710561050894089527
:10140000E894BB2766277727CB0197F90895F999C8
:10141000FECF92BD81BDF89A992780B508952F928D
:101420003F924F925F926F927F928F929F92AF9274
:10143000BF92CF92DF92EF92FF920F931F93CF93C1
:10144000DF93CDB7DEB7CA1BDB0B0FB6F894DEBF58
:101450000FBECDBF09942A88398848885F846E847E
:101460007D848C849B84AA84B984C884DF80EE80C8
:10147000FD800C811B81AA81B981CE0FD11D0FB6D1
:10148000F894DEBF0FBECDBFED0108950E945A0A49
:101490000C94CD090E94C60958F00E94BF0940F083
:1014A00029F45F3F29F00C94B60951110C94010AFC
:1014B0000C94BC090E94DE0968F39923B1F355230B
:1014C00091F3951B550BBB27AA2762177307840757
:1014D00038F09F5F5F4F220F331F441FAA1FA9F3ED
:1014E00035D00E2E3AF0E0E832D091505040E695DB
:1014F000001CCAF72BD0FE2F29D0660F771F881F3C
:10150000BB1F261737074807AB07B0E809F0BB0B2E
:10151000802DBF01FF2793585F4F3AF09E3F510542
:1015200078F00C94B6090C94010A5F3FE4F3983EFE
:10153000D4F3869577956795B795F7959F5FC9F72B
:10154000880F911D9695879597F90895E1E0660FAC
:10155000771F881FBB1F621773078407BA0720F025
:10156000621B730B840BBA0BEE1F88F7E09508958E
:10157000052E97FB1EF400940E94CF0A57FD07D05A
:101580000E94D70A07FC03D04EF40C94CF0A509562
:101590004095309521953F4F4F4F5F4F089590955F
:1015A0008095709561957F4F8F4F9F4F0895A1E271
:1015B0001A2EAA1BBB1BFD010DC0AA1FBB1FEE1FCD
:1015C000FF1FA217B307E407F50720F0A21BB30B18
:1015D000E40BF50B661F771F881F991F1A9469F794
:1015E00060957095809590959B01AC01BD01CF01F0
:1015F0000895EE0FFF1F0590F491E02D0994CF930D
:10160000DF938230910510F482E090E0E0910A02CD
:10161000F0910B0220E030E0C0E0D0E0309711F113
:101620004081518148175907C0F04817590761F4A4
:1016300082819381209719F09B838A832BC090939A
:101640000B0280930A0226C02115310519F04217BA
:10165000530718F49A01BE01DF01EF010280F38104
:10166000E02DDCCF2115310509F1281B390B243081
:10167000310590F412968D919C9113976115710527
:1016800021F0FB019383828304C090930B0280932B
:101690000A02FD01329644C0FD01E20FF31F81935F
:1016A0009193225031092D933C933AC02091080226
:1016B00030910902232B41F4209102013091030162
:1016C000309309022093080220910001309101011A
:1016D0002115310541F42DB73EB7409104015091D9
:1016E0000501241B350BE0910802F0910902E21775
:1016F000F307A0F42E1B3F0B2817390778F0AC0135
:101700004E5F5F4F2417350748F04E0F5F1F509311
:101710000902409308028193919302C0E0E0F0E057
:10172000CF01DF91CF9108950F931F93CF93DF9354
:10173000009709F48CC0FC01329713821282009149
:101740000A0210910B020115110581F420813181EB
:10175000820F931F20910802309109022817390740
:1017600079F5F0930902E093080271C0D80140E0D6
:1017700050E0AE17BF0750F412962D913C9113978D
:10178000AD012115310509F1D901F3CF9D01DA0130
:101790003383228360817181860F971F821793079D
:1017A00069F4EC0128813981260F371F2E5F3F4FE6
:1017B000318320838A819B8193838283452B29F403
:1017C000F0930B02E0930A0242C01396FC93EE934F
:1017D0001297ED01499159919E01240F351FE2178F
:1017E000F30771F480819181840F951F0296119601
:1017F0009C938E938281938113969C938E931297E0
:10180000E0E0F0E0D80112968D919C91139700973B
:1018100019F0F8018C01F6CF8D919C9198012E5F03
:101820003F4F820F931F2091080230910902281721
:10183000390769F4309729F410920B0210920A02CA
:1018400002C0138212821093090200930802DF91F2
:10185000CF911F910F910895A0E0B0E0E2E3FCE08A
:101860000C94130AEC01009721F4CB010E94FF0AAB
:10187000B8C0FC01E60FF71F9C0122503109E217A6
:10188000F30708F4ACC0D9010D911C91119706170C
:101890001707B0F00530110508F49FC0C801049780
:1018A0008617970708F499C002501109061B170BF9
:1018B000019311936D937C93CF010E94940B8DC083
:1018C0005B01A01AB10A4C01800E911EA0910A0280
:1018D000B0910B0240E050E0E12CF12C109709F49C
:1018E0004AC0A815B905D1F56D907C901197630198
:1018F00082E0C80ED11CCA14DB0480F1A3014A198E
:101900005B096A0182E0C80ED11C1296BC90129746
:101910001396AC91B5E0CB16D10440F0B282A3830C
:1019200051834083D9016D937C930AC00E5F1F4F92
:10193000C301800F911FF90191838083EB2DFA2F52
:10194000E114F10431F0D7011396FC93EE93129752
:1019500044C0F0930B02E0930A023FC08D919C912A
:1019600011974817590708F4AC017D0112960D90A4
:10197000BC91A02DB3CF80910802909109028815E7
:101980009905E1F446175707C8F48091000190913A
:101990000101009741F48DB79EB740910401509129
:1019A0000501841B950BE817F907C8F4F0930902A9
:1019B000E0930802F901718360830FC0CB010E949C
:1019C000FF0A7C01009759F0A801BE010E94FB0CA0
:1019D000CE010E94940BC70104C0CE0102C080E07A
:1019E00090E0CDB7DEB7EEE00C942F0A81E090E0F6
:1019F000F8940C94B50FFB01DC0102C001900D922C
:101A000041505040D8F70895FB01DC0101900D9240
:101A10000020E1F70895AEE0B0E0E1E1FDE00C94D4
:101A20001D0A8C01CA0146E04C831A83098377FFA3
:101A300002C060E070E8FB013197FE83ED83A901ED
:101A4000BC01CE0101960E94370D4D815E8157FD8C
:101A50000AC02F813885421753070CF49A01F80108
:101A6000E20FF31F10822E96E4E00C94390AACE0EA
:101A7000B0E0EDE3FDE00C940F0A7C016B018A01FC
:101A8000FC0117821682838181FFBDC1CE010196C0
:101A90004C01F7019381F60193FD859193FF8191AC
:101AA0006F01882309F4ABC1853239F493FD859128
:101AB00093FF81916F01853229F4B70190E00E9474
:101AC0001F0FE7CF512C312C20E02032A0F48B32B5
:101AD00069F030F4803259F0833269F420612CC00F
:101AE0008D3239F0803339F4216026C022602460C1
:101AF00023C0286021C027FD27C030ED380F3A30C1
:101B000078F426FF06C0FAE05F9E300D1124532EB4
:101B100013C08AE0389E300D1124332E20620CC091
:101B20008E3221F426FD6BC1206406C08C3611F480
:101B3000206802C0883641F4F60193FD859193FF39
:101B400081916F018111C1CF982F9F7D9554933062
:101B500028F40C5F1F4FFFE3F9830DC0833631F08B
:101B6000833771F0833509F05BC022C0F8018081B2
:101B700089830E5F1F4F44244394512C540115C098
:101B80003801F2E06F0E711CF801A080B18026FFD1
:101B900003C0652D70E002C06FEF7FEFC5012C8799
:101BA0000E94140F2C0183012C852F77222E17C041
:101BB0003801F2E06F0E711CF801A080B18026FFA1
:101BC00003C0652D70E002C06FEF7FEFC5012C8769
:101BD0000E94090F2C012C852068222E830123FCF2
:101BE0001BC0832D90E048165906B0F4B70180E27F
:101BF00090E00E941F0F3A94F4CFF50127FC8591E5
:101C000027FE81915F01B70190E00E941F0F311004
:101C10003A94F1E04F1A51084114510471F7E5C0AC
:101C2000843611F0893639F5F80127FF07C0608145
:101C30007181828193810C5F1F4F08C06081718127
:101C4000072E000C880B990B0E5F1F4F2F76722EFC
:101C500097FF09C090958095709561957F4F8F4F44
:101C60009F4F2068722E2AE030E0A4010E94570F97
:101C7000A82EA81844C0853729F42F7EB22E2AE05A
:101C800030E025C0F22FF97FBF2E8F36C1F018F457
:101C9000883579F0B4C0803719F0883721F0AFC0AB
:101CA0002F2F2061B22EB4FE0DC08B2D8460B82E74
:101CB00009C024FF0AC09F2F9660B92E06C028E0F5
:101CC00030E005C020E130E002C020E132E0F80160
:101CD000B7FE07C060817181828193810C5F1F4FC5
:101CE00006C06081718180E090E00E5F1F4FA4010B
:101CF0000E94570FA82EA818FB2DFF777F2E76FE87
:101D00000BC0372D3E7FA51450F474FE0AC072FC40
:101D100008C0372D3E7E05C0BA2C372D03C0BA2C23
:101D200001C0B52C34FF0DC0FE01EA0DF11D80810C
:101D3000803311F4397E09C032FF06C0B394B394E6
:101D400004C0832F867809F0B39433FD13C030FFAD
:101D500006C05A2CB31418F4530C5B18B32CB314EC
:101D600068F4B70180E290E03C870E941F0FB394B3
:101D70003C85F5CFB31410F43B1801C0312C34FF6F
:101D800012C0B70180E390E03C870E941F0F3C85A2
:101D900032FF17C031FD03C088E790E002C088E53C
:101DA00090E0B7010CC0832F867859F031FF02C054
:101DB0008BE201C080E237FD8DE2B70190E00E9426
:101DC0001F0FA51438F4B70180E390E00E941F0FA5
:101DD0005A94F7CFAA94F401EA0DF11D8081B7015E
:101DE00090E00E941F0FA110F5CF332009F451CECF
:101DF000B70180E290E00E941F0F3A94F6CFF701FE
:101E00008681978102C08FEF9FEF2C96E2E10C94C0
:101E10002B0AFC010590615070400110D8F78095A5
:101E200090958E0F9F1F0895FC01615070400190A6
:101E30000110D8F7809590958E0F9F1F08950F93EE
:101E40001F93CF93DF93FB01238121FD03C08FEF0D
:101E50009FEF28C022FF16C046815781248135811B
:101E60004217530744F4A081B1819D012F5F3F4F7A
:101E7000318320838C93268137812F5F3F4F3783B7
:101E8000268310C0EB01092F182F0084F185E02D67
:101E90000995892BE1F68E819F8101969F838E8320
:101EA000812F902FDF91CF911F910F910895FA010B
:101EB000AA27283051F1203181F1E8946F936E7F89
:101EC0006E5F7F4F8F4F9F4FAF4FB1E03ED0B4E07A
:101ED0003CD0670F781F891F9A1FA11D680F791FBB
:101EE0008A1F911DA11D6A0F711D811D911DA11DCC
:101EF00020D009F468943F912AE0269F11243019DC
:101F0000305D3193DEF6CF010895462F4770405D76
:101F10004193B3E00FD0C9F7F6CF462F4F70405D25
:101F20004A3318F0495D31FD4052419302D0A9F780
:101F3000EACFB4E0A6959795879577956795BA957A
:101F4000C9F700976105710508959B01AC010A2E40
:101F500006945795479537952795BA95C9F7620F17
:0E1F6000731F841F951FA01D0895F894FFCFD6
:101F6E0000000C02800000000000A00109013801F1
:101F7E00E701690147015B01436F6E66696720697E
:101F8E00203D2025643B206F6666736574203D20DE
:101F9E0025640A002535643A2000207556000D0A86
:101FAE0000496E76616C69642070696E732062728E
:041FBE006F2100008F
:107800000C94343C0C94513C0C94513C0C94513CE1
:107810000C94513C0C94513C0C94513C0C94513CB4
:107820000C94513C0C94513C0C94513C0C94513CA4
:107830000C94513C0C94513C0C94513C0C94513C94
:107840000C94513C0C94513C0C94513C0C94513C84
:107850000C94513C0C94513C0C94513C0C94513C74
:107860000C94513C0C94513C11241FBECFEFD8E036
:10787000DEBFCDBF11E0A0E0B1E0ECE9FFE702C060
:1078800005900D92A230B107D9F712E0A2E0B1E065
:1078900001C01D92AD30B107E1F70E942D3D0C945F
:1078A000CC3F0C94003C982F959595959595959582
:1078B000905D8F708A307CF0282F295A8091C0000B
:1078C00085FFFCCF9093C6008091C00085FFFCCF60
:1078D0002093C6000895282F205DF0CF982F809127
:1078E000C00085FFFCCF9093C6000895EF92FF92F1
:1078F0000F931F93EE24FF2487018091C00087FD22
:1079000017C00894E11CF11C011D111D81E4E8164B
:1079100082E4F8068FE0080780E0180770F3E09132
:107920000401F091050109958091C00087FFE9CF1E
:107930008091C6001F910F91FF90EF9008950E94D3
:10794000763C982F8091C00085FFFCCF9093C600B5
:1079500091362CF490330CF09053892F089597555D
:10796000892F08951F930E949F3C182F0E949F3CCF
:107970001295107F810F1F9108951F93182F882350
:1079800021F00E94763C1150E1F71F9108951F935A
:10799000182F0E94763C803249F0809103018F5F5E
:1079A000809303018530C1F01F9108958091C0003C
:1079B00085FFFCCF84E18093C6008091C00085FFE5
:1079C000FCCF1093C6008091C00085FFFCCF80E102
:1079D0008093C6001F910895E0910401F091050184
:1079E00009951F9108950E94763C803241F0809164
:1079F00003018F5F80930301853081F008958091AA
:107A0000C00085FFFCCF84E18093C6008091C00058
:107A100085FFFCCF80E18093C6000895E0910401CA
:107A2000F09105010995089540E951E08823A1F0FE
:107A30002D9A28EE33E0FA013197F1F721503040CA
:107A4000D1F72D9828EE33E0FA013197F1F7215064
:107A50003040D1F7815061F708953F924F925F9285
:107A60006F927F928F929F92AF92BF92CF92DF924E
:107A7000EF92FF920F931F93CF93DF93000080E16B
:107A80008093C4001092C50088E18093C10086E015
:107A90008093C2005098589A259A81E00E94143D24
:107AA00024E1F22E9EE1E92E85E9D82E0FE0C02ECA
:107AB00010E1B12EAA24A394B1E49B2EA6E58A2E50
:107AC000F2E57F2EE0E26E2E79E4572E63E5462E36
:107AD00050E5352E0E94763C8033B1F18133B9F107
:107AE000803409F46FC0813409F476C0823409F41B
:107AF00085C0853409F488C0803531F1823521F1A3
:107B0000813511F1853509F485C0863509F48DC0BC
:107B1000843609F496C0843709F403C1853709F423
:107B200072C1863709F466C0809103018F5F80932C
:107B30000301853079F6E0910401F0910501099582
:107B40000E94763C803351F60E94F33CC3CF0E94E2
:107B5000763C803249F78091C00085FFFCCFF092DF
:107B6000C6008091C00085FFFCCF9092C600809136
:107B7000C00085FFFCCF8092C6008091C00085FFC9
:107B8000FCCF7092C6008091C00085FFFCCF609250
:107B9000C6008091C00085FFFCCF5092C600809146
:107BA000C00085FFFCCF4092C6008091C00085FFD9
:107BB000FCCF3092C6008091C00085FFFCCFB09210
:107BC000C60088CF0E94763C863808F4BDCF0E945C
:107BD000763C0E94F33C7ECF0E94763C803809F4CC
:107BE0009CC0813809F40BC1823809F43CC1883942
:107BF00009F48FC080E00E94C73C6CCF84E10E94F2
:107C0000BD3C0E94F33C66CF85E00E94BD3C0E94D3
:107C1000F33C60CF0E94763C809306010E94763C44
:107C2000809307010E94F33C55CF0E94763C80333D
:107C300009F41DC183E00E94BD3C80E00E94C73C66
:107C400049CF0E94763C809309020E94763C809343
:107C5000080280910C028E7F80930C020E94763C79
:107C6000853409F415C18091080290910902892B8D
:107C700089F000E010E00E94763CF801E85FFE4FDA
:107C800080830F5F1F4F80910802909109020817AF
:107C9000190788F30E94763C803209F045CF809125
:107CA0000C0280FF01C16091060170910701660F0F
:107CB000771F7093070160930601A0910802B091AD
:107CC00009021097C9F0E8E0F1E09B01AD014E0F09
:107CD0005F1FF999FECF32BD21BD819180BDFA9A17
:107CE000F99A2F5F3F4FE417F50799F76A0F7B1F4B
:107CF00070930701609306018091C00085FFFCCF5F
:107D0000F092C6008091C00085FFFCCFB092C60003
:107D1000E1CE83E00E94C73CDDCE82E00E94C73CFA
:107D2000D9CE0E94763C809309020E94763C8093D3
:107D300008028091060190910701880F991F909386
:107D40000701809306010E94763C853409F4A6C0A1
:107D500080910C028E7F80930C020E94763C8032D0
:107D600009F0B8CE8091C00085FFFCCFF092C6002C
:107D7000609108027091090261157105B9F140E046
:107D800050E080910C02A82FA170B82FB27011C0E2
:107D9000BB2309F45CC0E0910601F0910701319624
:107DA000F0930701E09306014F5F5F4F46175707B7
:107DB000E8F4AA2369F3F999FECF209106013091E6
:107DC000070132BD21BDF89A90B58091C00085FFB2
:107DD000FCCF9093C6002F5F3F4F30930701209355
:107DE00006014F5F5F4F4617570718F38091C00099
:107DF00085FDE5CE8091C00085FFF8CFE0CE81E023
:107E00000E94C73C67CE0E94763C803209F08CCE3F
:107E10008091C00085FFFCCFF092C6008091C00029
:107E200085FFFCCFE092C6008091C00085FFFCCFAB
:107E3000D092C6008091C00085FFFCCFC092C600E2
:107E40008091C00085FFFCCFB092C60043CEE09188
:107E50000601F091070194918091C00085FFFCCF4D
:107E60009093C6009CCF80E10E94C73C33CE0E9415
:107E7000763C0E94763C182F0E94763C112309F430
:107E800083C0113009F484C08FE00E94C73C22CE29
:107E900080910C02816080930C02E5CE80910C02EF
:107EA000816080930C0259CF809107018823880F4D
:107EB000880B8A2180930B02809106019091070123
:107EC000880F991F90930701809306018091080203
:107ED00080FF09C080910802909109020196909359
:107EE000090280930802F894F999FECF1127E091D6
:107EF0000601F0910701C8E0D1E08091080290915D
:107F00000902103091F40091570001700130D9F34B
:107F100003E000935700E89500915700017001308D
:107F2000D9F301E100935700E89509901990009169
:107F3000570001700130D9F301E000935700E89534
:107F40001395103498F011270091570001700130FB
:107F5000D9F305E000935700E895009157000170B0
:107F60000130D9F301E100935700E895329602976A
:107F700009F0C7CF103011F00296E5CF112480919F
:107F8000C00085FFB9CEBCCE8EE10E94C73CA2CD19
:0C7F900085E90E94C73C9ECDF894FFCF0D
:027F9C00800063
:040000030000780081
:00000001FF